:100000000C9493000C9482540C94484F0C94A63D8D
:100010000C9454430C9482540C9482540C94825447
:100020000C9482540C9482540C9482540C948254F8
:100030000C9482540C9482540C9482540C94284650
:100040000C9482540C9482540C9482540C948254D8
:100050000C9482540C9482540C94394F0C94804329
:100060000C9482540C9482540C9482540C948254B8
:100070000C9482540C94B6310C9482540C945544D4
:100080000C947E440C941E4C0C9482540C94825418
:100090002800317380317331C400A93A31C432056C
:1000A000803205327200A98B3272328480328432FF
:1000B0009400A9F8329432B28032B232C000AA0859
:1000C00032C032CD8032CD336D00AA16336D33BDD0
:1000D0008033BD33E100AAB633E133E58033E53345
:1000E000E900AADA33E933F18033F133F500AADE0F
:1000F00033F5343D80343D344100AAE23441345874
:100100008034583459002473345934678034673448
:10011000680049933468346B80346B346C005BAD99
:10012000346C3474800011241FBECFEFCDBFDFE3E9
:10013000DEBFE0E9F0E041E017C0B591A59135914F
:100140002591059107FD0CC095918591EF01F92F3F
:10015000E82F05900D92A217B307D9F7FE0104C04E
:100160001D92A217B307E1F7E532F40731F70E94B9
:0A017000EE530C94BB00F894FFCF8F
:10017A00EF92FF920F931F93CF93DF9300D0CDB7E7
:10018A00DEB78C0110925B3480915934823020F0B2
:10019A00833009F497C084C280915E3480FF80C2A4
:1001AA00C8010E948552C80108960E94855241E002
:1001BA0050E068EE71E3C8010E9475380F2EF8EE20
:1001CA00EF2EF1E3FF2EF02D69EE71E3F701838D37
:1001DA00948D0E94224A482F50E069EE71E3C801CB
:1001EA000E9475384AE050E06DEE71E3C8010E9442
:1001FA00753842E050E067EF71E3C8010E94753834
:10020A00F70161897289FB0101900020E9F73197B2
:10021A00AF01461B570BC8010E947538F701878941
:10022A00908D892B31F48091FB319091FC31892B8F
:10023A0051F142E050E06BEF71E3C8010E9475385A
:10024A000F2EF8EEEF2EF1E3FF2EF02DF701438982
:10025A00548954274527542765897689C8010E94FD
:10026A00753842E050E06FEF71E3C8010E947538BB
:10027A00F7014789508D542745275427618D728D80
:10028A00C8010E947538C8010E948349882309F46D
:10029A000AC280915E348E7F80935E3485E08093BB
:1002AA005B3440E355E760E070E08FE493E30E943B
:1002BA004A2F82E08093593480915C348E7F8093F8
:1002CA005C34EEC180915E34882309F4E9C1482F79
:1002DA0050E080FDE5C180E08F5F682F9A01082E0B
:1002EA0002C0359527950A94E2F720FFF5CF81E001
:1002FA0090E002C0880F991F6A95E2F7883009F4E6
:10030A00D8C020F4843009F450C0CAC1803109F43D
:10031A0050C1803209F0C4C180915C3481FFC0C1F0
:10032A0080915C348D7F80935C3419821A82C80173
:10033A000E948552C80108960E948552898181705F
:10034A00806C8E7F89831A8241E050E0BE016F5F24
:10035A007F4FC8010E94753841E050E0BE016E5FD0
:10036A007F4FC8010E947538C8010E9483498823BB
:10037A0009F496C180915E348F7D80935E348091BA
:10038A005D34806180935D3480915C348B7F80938F
:10039A005C3440E355E760E070E08BE393E30E944E
:1003AA004A2F85E080935B347BC185E493E30E9406
:1003BA009A4CC8010E948552C80108960E9485522B
:1003CA0041E050E064E972E3C8010E9475380F2EDB
:1003DA00F4E9EF2EF2E3FF2EF02D65E972E3F7015F
:1003EA00868597850E94224A482F50E065E972E384
:1003FA00C8010E94753842E050E069E972E3C80119
:10040A000E947538F701458156815427452754279C
:10041A0067817085C8010E947538F70180818670EE
:10042A00823071F441E050E06EE972E3C8010E9443
:10043A00753841E050E06DE972E3C8010E947538F1
:10044A00E4E9F2E3438550E064857585C8010E94BA
:10045A00753880915E3482FD04C08091943283FFA6
:10046A0030C1C8010E948349882309F42AC18091B6
:10047A005E348B7F80935E348091943286708230B2
:10048A0009F015C180915D34806280935D340FC19B
:10049A009827892798279C0121503109A8EEB3E0B3
:1004AA000E94574FAB01BC0185E493E30E944A2F97
:1004BA00F7C0C8010E948552C80108960E94855259
:1004CA0041E050E064EA72E3C8010E9475380F2ED9
:1004DA00F4EAEF2EF2E3FF2EF02D65EA72E3F7015C
:1004EA00848595850E94224A482F50E065EA72E386
:1004FA00C8010E94753841E050E06AEA72E3C80117
:10050A000E94753841E050E069EA72E3C8010E942E
:10051A00753842E050E06BEA72E3C8010E94753810
:10052A00F7014781508554274527542761857285ED
:10053A00C8010E94753841E050E06FEA72E3C801D1
:10054A000E947538C8010E9483498823D1F080919E
:10055A005E34877F80935E3480915D3484608093BB
:10056A005D3480915C34877F80935C3440E355E747
:10057A0060E070E081E393E30E944A2F85E0809374
:10058A005B348091F5319091F631009709F488C077
:10059A009827892798279C0121503109A8EEB3E0B2
:1005AA000E94574FAB01BC0185E493E30E944A2F96
:1005BA0077C0C8010E948552C80108960E948552D8
:1005CA0041E050E060EC72E3C8010E9475380F2EDA
:1005DA00F0ECEF2EF2E3FF2EF02D61EC72E3F7015F
:1005EA00838594850E94224A482F50E061EC72E389
:1005FA00C8010E94753841E050E066EC72E3C80118
:10060A000E94753841E050E065EC72E3C8010E942F
:10061A00753842E050E067EC72E3C8010E94753811
:10062A00F7014781508554274527542761857285EC
:10063A00C8010E947538C8010E9483498823D1F0F5
:10064A0080915E348F7E80935E3480915D348860C1
:10065A0080935D3480915C348F7E80935C3440E378
:10066A0055E760E070E087E293E30E944A2F85E055
:10067A0080935B348091F5319091F631009781F047
:10068A009827892798279C0121503109A8EEB3E0C1
:10069A000E94574FAB01BC0185E493E30E944A2FA5
:1006AA008091593411C086E080935B34F9CF85E09C
:1006BA0080935B348091F5319091F631009781F304
:1006CA00E7CE10925934ECCF0F900F90DF91CF9173
:0A06DA001F910F91FF90EF9008951B
:1006E4002F923F924F925F926F927F928F929F923E
:1006F400AF92BF92CF92DF92EF92FF920F931F932C
:10070400CF93DF93CDB7DEB7C455D109CDBFDEBFDC
:100714008B0169017A01813411F08435E9F424E014
:1007240030E0AE014F5F5F4FC701B6010E94413A0E
:10073400811147C28A8126968FAF2697E0914B3468
:10074400F0914C34309709F43CC2AE014B5B5F4FDF
:1007540061E08981099535C28234E9F424E030E00E
:10076400AE014F5F5F4FC701B6010E94413A81114C
:1007740028C28A8126968FAF2697E0914B34F09158
:100784004C34309709F41DC2AE014B5B5F4F62E0FD
:100794008981099516C2833409F077C02CE030E0D2
:1007A400AE014B5B5F4FC701B6010E94413A811114
:1007B40008C22F968FAD2F9788230CF441C0482F81
:1007C400082E000C550B2E962FAD2E973BE02303DD
:1007D400F0011124EA53F04D9185349FF001359FC7
:1007E400F00D1124EA53F04D918791E090876196C2
:1007F4002EAD3FAD61972850310926833783209170
:100804004D3430914E34B9016F5F7F4F29F06093BE
:100814004D3470934E3406C02E5F3F4F20934D34B9
:1008240030934E349BE0949FF001959FF00D11247A
:10083400EA53F04D20914D3430914E342483358366
:10084400898382E090E08A839B8329968EAD9FAD55
:1008540029978C839D832D968CAD9DADAEADBFAD98
:100864002D978E839F83A887B987E0914B34F091AD
:100874004C34309709F4A5C1AE014F5F5F4F64E07B
:100884002E968FAD2E9709959CC1843411F08B342C
:1008940071F524E030E0AE014F5F5F4FC701B60150
:1008A4000E94413A81118DC1898126968FAF269786
:1008B4009A8127969FAF279791110CC02BE0820253
:1008C400F0011124EA53F04D2B813C812850310969
:1008D40026833783E0914B34F0914C34309709F4FC
:1008E40070C1AE014B5B5F4F65E009956AC18A3404
:1008F400E1F424E430E0AE014F5F5F4FC701B6017D
:100904000E94413A81115DC1E0914934F0914A3429
:10091400309709F456C125964CAD5DAD6EAD7FADF3
:100924002597CE01019609954CC1863451F088343F
:1009340069F08D3409F0DDC00F2EF6E0AF2EF02DF6
:1009440009C00F2EF6E0AF2EF02D04C00F2EF9E0F3
:10095400AF2EF02D20E130E0AE014B5B5F4FC701BD
:10096400B6010E94413A81112CC16296BFAC6297D4
:1009740065962EAD3FAD65976B2D0B2C000C770B58
:100984008B2D9BE08902F0011124EA53F04D12866D
:100994002F968EAD9FAD2F976196AEADBFAD61978B
:1009A40029964EAD5FAD299749875A872D964CAC51
:1009B4005DAC6EAC7FAC2D974B865C866D867E8677
:1009C400448155812417350709F0FBC01816190610
:1009D4000CF07DC04C018017910708F078C0009797
:1009E40009F4EFC02BE0269FF001279FF00D11249E
:1009F400EA53F04D20813181232B09F4E2C02BE02E
:100A0400269FF001279FF00D1124EA53F04D228117
:100A14003381232B09F4D5C02BE0269FF001279FB7
:100A2400F00D1124EA53F04D2085213009F0C9C09E
:100A3400CA0EDB1EE11CF11C8D839E832BE0269FD6
:100A4400C001279F900D1124FC01EA53F04D3F0192
:100A54002F01F2E04F0E511C130128E0220E311C2D
:100A6400F201008111818016910608F48401F301DA
:100A7400408151819801C701B6010E94413A811118
:100A8400A0C0F3018081918189839A830B831C83A5
:100A94008D819E81801B910B8D839E83E0914B34CD
:100AA400F0914C34309731F0AE014F5F5F4F6A2DB7
:100AB4008B2D0995C00ED11EE11CF11CF101808122
:100AC400882309F47EC0801A910A51F67AC08B8378
:100AD4009C8319821A82E0914B34F0914C34309704
:100AE40009F46FC0AE014F5F5F4F6A2D8B2D0995DE
:100AF40068C0853431F0873431F08C3481F517E0E7
:100B040003C017E001C018E028E030E0AE014F5FF9
:100B14005F4FC701B6010E94413A811152C08981D9
:100B24004D815E812B813C8127962EAF3FAF279765
:100B34002BE08202F0011124EA53F04D2481358127
:100B440042175307F1F5E0914B34F0914C34309750
:100B5400C1F1AE014B5B5F4F612F099532C0823505
:100B640081F524E130E0AE014F5F5F4FC701B6016C
:100B74000E94413A811125C04D815E816F81788543
:100B84008091013490910234A0910334B0910434E3
:100B9400481759076A077B0781F4E0914734F091BD
:100BA4004834309751F029853A854B855C856981B5
:100BB4007A818B819C81098909951092473410921E
:100BC4004834CC5ADF4FCDBFDEBFDF91CF911F91A8
:100BD4000F91FF90EF90DF90CF90BF90AF909F90D8
:100BE4008F907F906F905F904F903F902F900895DB
:100BF400CF92DF92EF92FF920F931F93CF93DF93E5
:100C0400CDB7DEB72997CDBFDEBF8C0110925B3420
:100C1400198280915C3482FD08C080915C3483FD2C
:100C240004C080915C3484FF05C010925934C8011B
:100C34000E94EA4DF80186859785892B19F48091E5
:100C44005934CAC180915934823039F0833009F45F
:100C540081C0813009F0A9C1ABC180915C3480FDB1
:100C640070C0C090F531D090F6318FE493E30E94C8
:100C74009A4C7801F8E0EF0EF11C41E050E0BE011F
:100C84006F5F7F4FC7010E94A8379C019981907FB5
:100C9400903209F046C08E010E5F1F4F84E0F801C8
:100CA40011928A95E9F741E050E0B801C7010E942A
:100CB4001D3741E050E0BE016D5F7F4FC7010E94C8
:100CC4001D37B8016E5F7F4F41E050E0C7010E94BD
:100CD4001D3741E050E0BE016B5F7F4FC7010E94AA
:100CE4001D378D81882309F466C170C180915E34FB
:100CF400806280935E3480915D348F7E80935D3416
:100D0400960121503109A8EEB3E00E94574FAB0180
:100D1400BC0185E493E30E944A2F84E080935B3412
:100D240047C182E080935B34898180935A34209355
:100D340023343093243410925934C8010E94EA4D6C
:100D440037C110925934C8010E94EA4D81E0809362
:100D54005B342EC17801F8E0EF0EF11C41E050E065
:100D6400BE016F5F7F4FC7010E94A83789818295BA
:100D74008F708930C1F138F4833009F4DCC08430D9
:100D840009F4DDC015C18B3009F485C08D3009F03C
:100D94000FC180915D3484FF0BC180915C3482FD6E
:100DA40007C18BE393E30E949A4C1A821B8241E0B1
:100DB40050E0BE016E5F7F4FC7010E941D378091D6
:100DC4005D348F7E80935D348091F5319091F6315E
:100DD400892B29F080915E34806280935E34C70150
:100DE4000E948552E5C080915D3482FFE1C080910C
:100DF4005C3483FDDDC081E393E30E949A4CBE0121
:100E04006E5F7F4F88E0FB0111928A95E9F741E01C
:100E140050E0C7010E941D3741E050E0BE016D5F04
:100E24007F4FC7010E941D3741E050E0BE01695F5A
:100E34007F4FC7010E941D3741E050E0BE01685F4B
:100E44007F4FC7010E941D3798858091A93298135E
:100E540012C09F818091AA3298130FC041E050E0E4
:100E6400BE01675F7F4FC7010E941D3789858038A7
:100E740031F013E005C010E003C010E001C010E041
:100E840080915D348B7F80935D34C7010E948552CD
:100E9400109359348DC080915D3483FF89C0809153
:100EA4005C3484FD85C087E293E30E949A4CBE01C2
:100EB4006E5F7F4F84E0FB0111928A95E9F741E070
:100EC40050E0C7010E941D3741E050E0BE016D5F54
:100ED4007F4FC7010E941D378B818230E1F441E0CE
:100EE40050E0BE016C5F7F4FC7010E941D3741E097
:100EF40050E0BE016B5F7F4FC7010E941D379D818B
:100F04008091C532981309C09C818091C63298178C
:100F140031F010E005C010E003C010E001C013E0A0
:100F240080915D34877F80935D34C7010E94855230
:100F3400109359343DC0C8010E941D1639C08E015A
:100F44000E5F1F4F84E0F80111928A95E9F741E0A2
:100F540050E0B801C7010E941D3741E050E0BE01D6
:100F64006D5F7F4FC7010E941D3741E050E0BE0115
:100F74006B5F7F4FC7010E941D37B8016E5F7F4FC3
:100F840041E050E0C7010E941D379C8180919D3251
:100F940098130EC09D8180919E32981309C0809150
:100FA4005D348F7D80935D3403C087E08093593432
:100FB4008091593411C0DC24CD24DC2483E0809357
:100FC4005934C114D10409F4A8CE90CE10925934E6
:100FD40083E080935B34ECCF2996CDBFDEBFDF91F5
:100FE400CF911F910F91FF90EF90DF90CF900895D4
:100FF400ABE0B0E0E0E0F8E00C94B84A6C017B01AF
:101004008A01FC0116821782838181FFCCC1CE0143
:1010140001963C01F6019381F70193FD859193FFBD
:1010240081917F01882309F4BAC1853239F493FD93
:10103400859193FF81917F01853229F4B60190E077
:101044000E946A3DE7CF912C212C312CFFE1F3154E
:10105400D8F08B3279F038F4803279F08332A1F40D
:10106400232D20611DC08D3261F0803369F4232D5E
:10107400216016C0832D8260382EE32DE4603E2E5D
:101084002AC0F32DF8601DC037FC2DC020ED280FB9
:101094002A3040F08E32B9F436FC81C1232D20640D
:1010A400322E19C036FE06C08AE0989E200D112407
:1010B400922E11C0EAE02E9E200D1124222EF32D33
:1010C400F0623F2E08C08C3621F4832D8068382EC0
:1010D40002C0883641F4F70193FD859193FF819115
:1010E4007F018111B3CF982F9F7D9554933028F4BD
:1010F4000C5F1F4F9FE399830DC0833631F0833714
:1011040071F0833509F059C021C0F80180818983C9
:101114000E5F1F4F88248394912C530113C0280120
:10112400F2E04F0E511CF801A080B18036FE03C0DE
:10113400692D70E002C06FEF7FEFC5010E94F5508A
:101144004C018201F32DFF773F2E16C0280122E0C7
:10115400420E511CF801A080B18036FE03C0692DF7
:1011640070E002C06FEF7FEFC5010E94EA504C01AE
:10117400F32DF0683F2E820133FC1BC0822D90E0DA
:1011840088169906B0F4B60180E290E00E946A3DA8
:101194002A94F4CFF50137FC859137FE81915F01E4
:1011A400B60190E00E946A3D21102A9421E0821A3F
:1011B40091088114910471F7E8C0843611F08936DE
:1011C40041F5F80137FE07C0608171818281938106
:1011D4000C5F1F4F08C060817181072E000C880BC3
:1011E400990B0E5F1F4FF32DFF763F2E97FF09C01B
:1011F40090958095709561957F4F8F4F9F4FF068C4
:101204003F2E2AE030E0A3010E94352E882E861856
:1012140045C0853731F4232D2F7EB22E2AE030E0ED
:1012240025C0932D997FB92E8F36C1F018F48835D7
:1012340079F0B5C0803719F0883721F0B0C0E92FB4
:10124400E061BE2EB4FE0DC0FB2DF460BF2E09C0BC
:1012540034FE0AC0292F2660B22E06C028E030E0F2
:1012640005C020E130E002C020E132E0F801B7FE21
:1012740007C060817181828193810C5F1F4F06C01A
:101284006081718180E090E00E5F1F4FA3010E9496
:10129400352E882E8618FB2DFF773F2E36FE0DC087
:1012A400232D2E7FA22E891458F434FE0BC032FC59
:1012B40009C0832D8E7EA82E05C0B82CA32C03C094
:1012C400B82C01C0B92CA4FE0FC0FE01E80DF11D1D
:1012D4008081803321F49A2D997EA92E09C0A2FE23
:1012E40006C0B394B39404C08A2D867809F0B394ED
:1012F400A3FC11C0A0FE06C0B21488F4280C922CE2
:101304009B180EC0B21460F4B60180E290E00E9413
:101314006A3DB394F7CFB21418F42B1802C0982C7A
:10132400212CA4FE10C0B60180E390E00E946A3D27
:10133400A2FE17C0A1FC03C088E790E002C088E5C4
:1013440090E0B6010CC08A2D867859F0A1FE02C047
:101354008BE201C080E2A7FC8DE2B60190E00E941E
:101364006A3D891438F4B60180E390E00E946A3D36
:101374009A94F7CF8A94F301E80DF11D8081B601A8
:1013840090E00E946A3D8110F5CF222009F442CEFC
:10139400B60180E290E00E946A3D2A94F6CFF601FD
:1013A4008681978102C08FEF9FEF2B96E2E10C9428
:0213B400014BEB
:1013B600CF92DF92EF92FF920F931F930E94B9494B
:1013C600E0EAF4E08689887F8360868B8EEB98E17D
:1013D6000E94B2530E94B0300E94724C8AE492E39B
:1013E6000E948F538AE492E30E94E4530E94BB4F0B
:1013F600811105C080910E28846080930E288AE4AE
:1014060092E30E94B83880937529882329F0809149
:101416000E28846080930E288AE492E30E948F53FC
:101426008AE492E30E94B5520E942B440E944636FB
:1014360048EE53E060E070E089E593E30E944A2FAE
:1014460040E257E466E170E0C12CD12C760100E061
:1014560010E0980186B38074080F111D211D311DFF
:1014660086B38072C80ED11CE11CF11C4150510993
:101476006109710979F7003913422B40310508F0EB
:10148600BEC080E9C81683E2D8068BE0E806F10400
:1014960008F06CC089E0E0E8F9E8ACE7B8E2019052
:1014A6000D928A95E1F78AE0E9E8F9E8ADE9B8E254
:1014B60001900D928A95E1F71F9282E08F938FED4E
:1014C60098E89F938F9382EF98E29F938F930E9461
:1014D6003E47E8EDF3E30F2EFAEFCF2ED12CE12CA9
:1014E600F12CF02DC082D182E282F382C482D582B1
:1014F600E682F782CF010E943D13EFECF3E3C08250
:10150600D182E282F382C482D582E682F782CF015B
:101516000E943D13E6ECF3E31082118212821382DD
:10152600C12CD12C7601C394C482D582E682F7827F
:10153600CF010E943D13EDEBF3E31082118212827C
:101546001382C482D582E682F782CF010E943D13C0
:1015560080910E2888608F7D806480930E280F907E
:101566000F900F900F900F900F90AAC0E8EDF3E345
:1015760084EF91E0A0E0B0E080839183A283B383FF
:1015860084839583A683B783CF010E943D13EFEC36
:10159600F3E31082118212821382C12CD12C7601C0
:1015A600C394C482D582E682F782CF010E943D139E
:1015B600E6ECF3E31082118212821382C482D58292
:1015C600E682F782CF010E943D13EDEBF3E3108232
:1015D600118212821382C482D582E682F782CF01FB
:1015E6000E943D1380910E28877F80628F7B8093B7
:1015F6000E2860E08FED93E50E94044844C0E8EDB4
:10160600F3E38AEF90E0A0E0B0E080839183A283C9
:10161600B38384839583A683B783CF010E943D134A
:10162600EFECF3E31082118212821382C12CD12CCB
:101636007601C394C482D582E682F782CF010E94E6
:101646003D13E6ECF3E31082118212821382C48208
:10165600D582E682F782CF010E943D13EDEBF3E3DC
:101666001082118212821382C482D582E682F782A8
:10167600CF010E943D1380910E2888608F7D8F7B5D
:1016860080930E281DC00E94B0308FE498E29F938D
:101696008F9382EE98E89F938F9381E199E29F93CF
:1016A6008F930E943E4766ED75E281E199E20E94C2
:1016B600FE4C0F900F900F900F900F900F9012C04E
:1016C60061E08FED93E50E9404488AE492E30E946C
:1016D600A05144E650E060E070E083E693E30E94A8
:1016E6004A2FD1CF1F910F91FF90EF90DF90CF90AF
:0216F600089555
:1016F800AF92BF92CF92DF92EF92FF920F931F9318
:10170800CF93DF93CDB7DEB72697CDBFDEBF7C0181
:101718006B016091FD337091FE338091FF3390919E
:101728000034611571058105910509F4FDC0890131
:101738005A0122E030E0A7010E94413A8111F6C027
:101748008091FD339091FE33A091FF33B091003426
:10175800BC01CD016E5F7F4F8F4F9F4F6093FD336C
:101768007093FE338093FF339093003422E030E08F
:10177800AE014B5F5F4F0E94413A8111D9C0809101
:10178800FD339091FE33A091FF33B0910034BC013A
:10179800CD016E5F7F4F8F4F9F4F6093FD337093E6
:1017A800FE338093FF339093003422E030E0AE01A3
:1017B8004F5F5F4F0E94413A8111BCC08091FD3359
:1017C8009091FE33A091FF33B0910034BC01CD015C
:1017D8006E5F7F4F8F4F9F4F6093FD337093FE3343
:1017E8008093FF339093003422E030E0AE014D5FE8
:1017F8005F4F0E94413A81119FC08091FD339091C3
:10180800FE33A091FF33B0910034BC01CD016E5F6F
:101818007F4F8F4F9F4F6093FD337093FE338093BC
:10182800FF3390930034F701208131813227232739
:101838003227208331832D813E8132272327322787
:10184800F801E05CFF4F2083318349815A81542796
:101858004527542749835A834B815C815427452760
:1018680054274B835C83220F331FA8010E94413AFF
:10187800811164C0F801E05CFF4F20813181220FA3
:10188800331F8091FD339091FE33A091FF33B091C7
:101898000034BC01CD01620F731F811D911D60933F
:1018A800FD337093FE338093FF3390930034298186
:1018B8003A81A6010E94413A811142C029813A81A8
:1018C8008091FD339091FE33A091FF33B0910034A5
:1018D800BC01CD01620F731F811D911D6093FD3303
:1018E8007093FE338093FF33909300342B813C81B7
:1018F800A5010E94413A811125C02B813C8140916C
:10190800FD335091FE336091FF3370910034420FE4
:10191800531F611D711D4093FD335093FE33609337
:10192800FF33709300340FC084EF0DC084EF0BC0F9
:1019380084EF09C084EF07C084EF05C084EF03C0BB
:1019480084EF01C084EF2696CDBFDEBFDF91CF9133
:101958001F910F91FF90EF90DF90CF90BF90AF90C5
:021968000895E0
:10196A00CF92DF92EF92FF92CF93DF93EB018B310D
:10197A0009F4EEC020F4893009F4F2C021C18C3296
:10198A0021F0823309F4CBC01BC18881813009F070
:10199A005FC080915534882309F183E193E30E9463
:1019AA009A4C10925534E8EDF3E38AEF90E0A0E008
:1019BA00B0E080839183A283B38384839583A683D3
:1019CA00B783CF010E943D1348EE53E060E070E018
:1019DA0089E093E30E944A2F0E94325080910E2898
:1019EA008A708830C1F4EFECF3E38AEF90E0A0E06C
:1019FA00B0E080839183A283B38384839583A68393
:101A0A00B783CF010E943D1380910E288260877BA5
:101A1A00806180930E2880910E2885FF16C08F7DE5
:101A2A0080930E28E8EDF3E388EE93E0A0E0B0E0BF
:101A3A0080839183A283B38384839583A683B783A8
:101A4A0083E08087CF010E943D130E94114D59C047
:101A5A00811157C0E6ECF3E31082118212821382DD
:101A6A00C12CD12C7601C394C482D582E682F78236
:101A7A00CF010E943D13EDEBF3E310821182128233
:101A8A001382C482D582E682F782CF010E943D1377
:101A9A0080910E2886FD22C0EFECF3E310821182BA
:101AAA001282138281E090E0A0E0B0E08483958303
:101ABA00A683B783CF010E943D13E8EDF3E38AEFD3
:101ACA0090E0A0E0B0E080839183A283B383848313
:101ADA009583A683B783CF010E943D1380910E2878
:101AEA008D7E886080930E2842E350E060E070E0CB
:101AFA0085EF92E30E944A2F80910E28816080939D
:101B0A000E28E0911734F0911834309709F458C030
:101B1A0080910E2880FD54C08881099551C08BE1BF
:101B2A0098E20E949F4A81114BC080910E2880FF43
:101B3A0009C085EF92E30E949A4C80910E288E7F0D
:101B4A0080930E2880910E288B7F80930E2838C0B0
:101B5A0088819981892BA1F1CB010E949D4230C0D5
:101B6A00FB01ED59FF4F808181112AC03197808195
:101B7A001F928F938CE59DE79F938F9382EF98E254
:101B8A009F938F930E943E47BE018CE798E20E9482
:101B9A000453BE016F5D7F4F8DE998E20E940453A2
:101BAA0081E08093553440E050E0BA0183E193E349
:101BBA000E944A2F0F900F900F900F900F900F9046
:0E1BCA00DF91CF91FF90EF90DF90CF900895C4
:101BD800CF92DF92EF92FF92CF93DF938091092803
:101BE800982F957051F4E0918432F091853267ED29
:101BF80072E381EE92E309951FC083FD1DC0E09159
:101C08009032F09191320995811116C0809109287E
:101C180081FD12C040E157E260E070E081EE92E39E
:101C28000E944A2F80910E288F7780930E288091EA
:101C3800092888608093092880910E2881FD0BC0AF
:101C4800E0919032F09191320995882309F4E3C02C
:101C58000E944F54E0C00E944C54DC015096ED9114
:101C6800FC9151978081082E000C990B0E94D65147
:101C7800C82F0E9430496B017C010E942752672BB4
:101C8800682B692B09F1E0919032F0919132099516
:101C98008823D1F080910E28806880930E28809147
:101CA800E5339091E633A091E733B091E833C81655
:101CB800D906EA06FB0641F0C092E533D092E63336
:101CC800E092E733F092E833C23009F4A4C030F070
:101CD800C33009F1C43009F099C09DC00E94CF44B7
:101CE80060910A2870910B2880910C2890910D28FA
:101CF800E0918632F091873209958F3F31F48091D7
:101D08000E28846080930E2886C080910E288061FA
:101D180080930E2880C0E0919232F0919332099519
:101D2800882331F0E0918832F0918932099573C0A7
:101D38000E944C54EC010E94FA05873071F00E9411
:101D48005554823019F0843021F007C00E9458544D
:101D580004C00E9427520E943052CE010E94BD004A
:101D68000E9455540E944C54FC01C484D5840E949E
:101D78004C54DC011896ED90FC9019970E944C5435
:101D8800DC015096ED91FC915197808120E030E084
:101D9800A601B701082E000C990B0E940233E091AE
:101DA8009032F091913209958823A9F180910E28FB
:101DB8008F7E8B7F80930E2881EE92E30E949A4C4F
:101DC80087ED92E30E949A4C809109288B7F877F48
:101DD8008093092884FF05C0E0918A32F0918B3204
:101DE80009950E94304961317E40810591059CF03A
:101DF800E0918E32F0918F320995E889F9898081D6
:101E0800082E000C990B0E94E04505C080910E2811
:101E1800846080930E2864EF71E080E090E0DF91A9
:0C1E2800CF91FF90EF90DF90CF900895D5
:101E34004F925F926F927F928F929F92AF92BF92D6
:101E4400FF920F931F93CF93DF9300D000D0CDB7B1
:101E5400DEB7F82EB62E29013A0120E030E0A901C0
:101E64006CE070E0CB010E947E3920E030E0A901F3
:101E74006CE870E180E090E00E947E3920E030E080
:101E8400A9016CEA77E082E090E00E947E3921E0CB
:101E940030E040E050E068E171E180E090E00E94D1
:101EA40031388111BFC020E034E040E050E060E010
:101EB40074E180E090E00E9431388111B5C064E1A2
:101EC40070E180E090E00E941F459923C4F76CEB19
:101ED40077E082E090E00E941F4560FD19C00FEC9E
:101EE40017E061E070E080E090E00E944C496CE013
:101EF40070E0CB010E941F456E39704D8D4A9041B0
:101F040021F00150110968F703C0012B09F48EC0B8
:101F1400FF2079F02DE735ED4CE15CE36CEA77E0E6
:101F240082E090E00E947E39812C912C540193949C
:101F34000DC0BB2039F0812C912C5401689487F892
:101F4400939404C0812C912C54019394A301920185
:101F54006CE870E180E090E00E947E390E94F421F8
:101F6400DC01CB019F70AA27BB27803A9340A105CF
:101F7400B10510F0689481F8A501940160EA74E158
:101F840080E090E00E947E39AE014F5F5F4F60EACF
:101F940074E180E090E00E94944D811109C0898130
:101FA4009A81AB81BC8188169906AA06BB0621F7E3
:101FB40021E63FE242E55FEE6CE070E0CB010E9477
:101FC4007E3900ED17E062E070E080E090E00E946E
:101FD4004C49F11017C06CE870E180E090E00E9479
:101FE4001F456633764283459240B9F420E030E0E1
:101FF400A9016CE870E180E090E00E947E390E94C3
:102004009E4817C06CEA77E082E090E00E941F458A
:10201400633C714C8D45974D59F00150110999F667
:1020240080E007C080E005C080E003C080E001C01C
:1020340081E02496CDBFDEBFDF91CF911F910F9138
:10204400FF90BF90AF909F908F907F906F905F9024
:042054004F9008950C
:10205800EF92FF920F931F93CF93DF93CDB7DEB725
:10206800C854D109CDBFDEBF88230CF4E3C02115C5
:10207800310509F4E1C0E82E082E000CFF089BE0AA
:102088008902D0011124AA53B04D18969C91992326
:1020980009F4D4C0D901623009F0A8C087300CF027
:1020A800CFC09BE09E9DF0019F9DF00D1124EA5347
:1020B800F04D918590FFC6C04130E1F42D913C91DF
:1020C800232B61F08BE08E9DF0018F9DF00D112484
:1020D800EA53F04D9260918780E0B9C08BE08E9D05
:1020E800F0018F9DF00D1124EA53F04D9D7F9187EB
:1020F80080E0ADC04330E1F42D913C91232B61F099
:102108008BE08E9DF0018F9DF00D1124EA53F04D68
:102118009061918780E09BC08BE08E9DF0018F9D40
:10212800F00D1124EA53F04D9F7E918780E08FC017
:102138004430E1F42D913C91232B61F08BE08E9D8E
:10214800F0018F9DF00D1124EA53F04D90649187B2
:1021580080E07DC08BE08E9DF0018F9DF00D1124F5
:10216800EA53F04D9F7B918780E071C0423009F0BF
:102178006BC00034110508F069C089838BE08E9D1F
:10218800F0018F9DF00D1124EA53F04D8481958163
:102198008B839C8382E08A83A80160E070E04D8392
:1021A8005E836F83788780E4F901DE0119960190D8
:1021B8000D928A95E1F728E430E0AE014F5F5F4F5A
:1021C80061E582E00E94484C8D3F61F428E430E0EC
:1021D800AE014F5F5F4F61ED82E00E94484C811174
:1021E80003C035C080E033C082EF31C04E838D8399
:1021F8008D919D910D90BC91A02D89839A83AB837D
:10220800BC838BE08E9DF0018F9DF00D1124EA5365
:10221800F04D848195818F83988728E030E0AE0166
:102228004F5F5F4F6FE482E00E94484C882379F04B
:1022380087EF0DC08AEF0BC08AEF09C08AEF07C08D
:102248008AEF05C08AEF03C08AEF01C08AEFC85B36
:10225800DF4FCDBFDEBFDF91CF911F910F91FF9070
:04226800EF90089556
:10226C004F4B0D00646562756720706172616D651E
:10227C00746572206D757374206265206265747765
:10228C0065656E203020284C656173742920616E61
:10229C0064203420284D6F737429200D00342E31A6
:1022AC002E30007625730D0A0400312E302E3100AD
:1022BC0025730D0A0400556E6B6E6F776E2E0D0A2A
:1022CC0004004572726F722067657474696E6720C2
:1022DC005468696E67204E616D652E0D0A04002CE2
:1022EC00002564004F4B0D0A04004572726F722E6C
:1022FC002057692D466920636F6D6D616E64206691
:10230C006F726D61742069732077696669203C7304
:10231C007369643E5B2C3C706173733E2C5B61751E
:10232C007468547970655D5D0D0A04002D2D2D2D9A
:10233C002D2D2D2D2D2D2D2D2D2D2D2D2D2D2D2DC1
:10234C002D2D2D2D2D2D2D2D2D2D2D2D2D2D2D2DB1
:10235C002D2D2D2D2D2D2D2D0D0A556E6B6E6F7770
:10236C006E20636F6D6D616E642E204C69737420EA
:10237C006F6620617661696C61626C6520636F6D5C
:10238C006D616E64733A0D0A72657365740D0A643F
:10239C0065766963650D0A7468696E670D0A726506
:1023AC00636F6E6E6563740D0A76657273696F6E1A
:1023BC000D0A636C695F76657273696F6E0D0A77CF
:1023CC00696669203C737369643E5B2C3C70617375
:1023DC00733E2C5B61757468547970655D5D0D0A94
:1023EC0064656275670D0A2D2D2D2D2D2D2D2D2D2E
:1023FC002D2D2D2D2D2D2D2D2D2D2D2D2D2D2D2D01
:10240C002D2D2D2D2D2D2D2D2D2D2D2D2D2D2D2DF0
:10241C002D2D2D0D0A04000D0A436F6D6D616E6438
:10242C0020746F6F206C6F6E670D0072657365742E
:10243C00007265636F6E6E65637400776966690020
:10244C007468696E670064657669636500636C69BE
:10245C005F76657273696F6E0076657273696F6E05
:07246C000064656275670062
:01247300FF69
:10247400CF92DF92EF92FF921F93CF93DF93CDB76A
:10248400DEB72697CDBFDEBF1B821C821D821E8253
:102494006BEE72E60E94F35389839A83009709F4E2
:1024A400C7C09E012F5F3F4F790110E0F701819370
:1024B40091937F011F5F6BEE72E680E090E00E94D3
:1024C400F353009719F0133089F7C3C0E980FA80F9
:1024D400E114F10409F4B5C08B819C81009729F4BF
:1024E4008D819E81892B81F415C02D813E81232B02
:1024F40059F40E9442549EEF980F923008F498C009
:10250400813041F012E016C08D819E810E944254B8
:10251400182F97C040E250E0B7018CE798E20E9480
:10252400664F10929D2881E390E08093F228909367
:10253400F32824C040E250E0B7018CE798E20E94FF
:10254400664F6B817C8140E450E08DE998E20E9403
:10255400664F1F921F938DEE92E69F938F9382EFA7
:1025640098E29F938F930E943E470F900F900F9095
:102574000F900F900F90112309F45AC080EF92E648
:102584009F938F930E949F4B0E9417530F900F901D
:10259400882321F00E944C540E94EA4D80910E2819
:1025A40088233CF48F7780930E280E944C540E9419
:1025B400C0390E94834FE6ECF3E310821182128249
:1025C4001382C12CD12C7601C394C482D582E682B5
:1025D400F782CF010E943D13EDEBF3E310821182E9
:1025E40012821382C482D582E682F782CF010E94CE
:1025F4003D13EFECF3E31082118212821382C48242
:10260400D582E682F782CF010E943D13E8EDF3E321
:102614008AEF90E0A0E0B0E080839183A283B3834B
:1026240084839583A683B783CF010E943D1318C08A
:1026340086EF92E69F938F930E949F4B0F900F908B
:102644000FC0113009F466CF98F3143008F472CF38
:10265400EFCFE980FA80E114F10409F03DCF6ACFAD
:102664002696CDBFDEBFDF91CF911F91FF90EF90F3
:06267400DF90CF900895F5
:10267A00CF93DF93EC018885813009F47DC008F49B
:10268A00B6C08230F1F1833009F0EBC089EA93E3F6
:10269A000E949A4C83EB93E30E949A4C8C819D8111
:1026AA00AE81BF81892B8A2B8B2B21F488E0809302
:1026BA006604D7C088819981AA81BB81892B8A2B1C
:1026CA008B2B21F488E080936504CBC0A3EBB3E3A2
:1026DA001296CD93DC931397E9EAF3E3C283D3838B
:1026EA008EEC9EE48D939C9311978EEB9EE48083EF
:1026FA009183488159816A817B81CD010E944A2F49
:10270A00B0C085E993E30E949A4C8FE993E30E9453
:10271A009A4C8C819D81AE81BF81892B8A2B8B2B10
:10272A0021F484E0809366049CC088819981AA81FF
:10273A00BB81892B8A2B8B2B21F484E0809365043F
:10274A0090C0AFE9B3E31296CD93DC931397E5E912
:10275A00F3E3C283D3838EEA9EE48D939C9311970D
:10276A008EE99EE480839183488159816A817B81C5
:10277A00CD010E944A2F75C081E893E30E949A4CCA
:10278A008BE893E30E949A4C8C819D81AE81BF8134
:10279A00892B8A2B8B2B21F482E08093660461C0FB
:1027AA0088819981AA81BB81892B8A2B8B2B21F461
:1027BA0082E08093650455C0ABE8B3E31296CD93EB
:1027CA00DC931397E1E8F3E3C283D3838EE89EE4B4
:1027DA008D939C9311978EE79EE480839183488121
:1027EA0059816A817B81CD010E944A2F3AC08DE6C8
:1027FA0093E30E949A4C87E793E30E949A4C8C8158
:10280A009D81AE81BF81892B8A2B8B2B21F481E09C
:10281A008093660426C088819981AA81BB81892B0D
:10282A008A2B8B2B21F481E0809365041AC0A7E7D9
:10283A00B3E31296CD93DC931397EDE6F3E3C283E9
:10284A00D3838EE69EE48D939C9311978EE59EE446
:10285A0080839183488159816A817B81CD010E945D
:08286A004A2FDF91CF91089580
:102872002F923F924F925F926F927F928F929F928E
:10288200AF92BF92CF92DF92EF92FF920F931F937C
:10289200CF93DF93CDB7DEB72C97CDBFDEBF962F98
:1028A2009F779A8389830115110539F0F7013896CC
:1028B200EC0DFD1DEB83FC8304C0F9013896EB831C
:1028C200FC83EB81FC81ED33F64008F0ABC03601AE
:1028D200680149015A01162F082F0E94D14A81111D
:1028E200A3C02B813C81C901A0E0B0E0DC019927A3
:1028F2008827802B9C01AD01312B2D833E834F8392
:1029020058876CE870E180E090E00E947E3922E016
:1029120030E040E050E068E770E180E090E00E9443
:102922007E3919861A861B861C8607EE13E0AE01D5
:102932004B5F5F4F68E770E180E090E00E94944D4A
:102942000E946D54882321F00E946D4A8FEF6DC062
:102952008D8181FD0AC0AE01475F5F4F60E074E088
:1029620085E190E00E94944D0DC0053F81E018077B
:1029720030F461E070E080E090E00E944C49015048
:102982001109A8F60E946D54811109C029843A8464
:102992004B845C84211431044104510421F40E94CB
:1029A2006D4A8DEF42C028E030E0AE014F5F5F4FCD
:1029B200C201B1010E942A2388E0280E311C411C69
:1029C200511CA114B10431F09401A501C201B1015D
:1029D2000E942A23C114D10451F0C201B101660D33
:1029E200771D811D911D9701A6010E942A238985C9
:1029F2009A85AB85BC85880F991FAA1FBB1F880FBC
:102A0200991FAA1FBB1F9C01AD0122606CE670E1F9
:102A120080E090E00E947E390E946D4A0E946D54CF
:102A2200819503C08FEF01C08FEF2C96CDBFDEBF23
:102A3200DF91CF911F910F91FF90EF90DF90CF9098
:102A4200BF90AF909F908F907F906F905F904F90CC
:062A52003F902F90089553
:102A58008F929F92AF92BF92CF92DF92EF92FF92A6
:102A68000F931F93CF93DF938C01DC011696CD90C3
:102A7800DD90ED90FC901997C0911F34D0912034CF
:102A880014961D921C9215978091ED339091EE3318
:102A9800A091EF33B091F033C816D906EA06FB06C9
:102AA80008F065C08090ED339090EE33A090EF333E
:102AB800B090F03380915734882329F10E94C15394
:102AC800A0E0B0E04091E9335091EA336091EB33F4
:102AD8007091EC3384179507A607B70720F48FEF9A
:102AE8009FEFA0E0B0E04091E9335091EA33609164
:102AF800EB337091EC33841A950AA60AB70A880E4C
:102B0800991EAA1EBB1E209791F0FE01868197810F
:102B1800A085B18588199909AA09BB098683978375
:102B2800A087B1870480F581E02D309779F78091EF
:102B3800ED339091EE33A091EF33B091F0338819D3
:102B48009909AA09BB098093ED339093EE33A093BA
:102B5800EF33B093F033BFEFEB1AFB0AC818D9086C
:102B6800EA08FB08F801C682D782E086F18620973A
:102B780041F18E819F81A885B985C816D906EA06D4
:102B8800FB0658F41EC086819781A085B185C816BA
:102B9800D906EA06FB06C0F1EF01EC81FD8130970A
:102BA80091F732C08091213390912233D801149645
:102BB8008D939C93159700931F341093203481E0D4
:102BC8002BC01092E9331092EA331092EB33109233
:102BD800EC3380E090E00E949D500E943B5380912E
:102BE800E9339091EA33A091EB33B091EC330E9432
:102BF8009D500E943B5380911F3490912034B3E341
:102C08008D319B0799F6CECFD8011496ED93FC939E
:102C180015970C831D8380E0DF91CF911F910F9151
:102C2800FF90EF90DF90CF90BF90AF909F908F90E4
:022C38000895FD
:102C3A004F925F926F927F928F929F92AF92BF92C2
:102C4A00CF92DF92EF92FF920F931F93CF93DF936E
:102C5A00CDB7DEB7C05AD140CDBFDEBFBE016F5F70
:102C6A007F4F20E1DB011D922A95E9F7FE0171965B
:102C7A0024E6DF011D922A95E9F7EC59FF4F2CE271
:102C8A0031E0DF01A9011D9241505040E1F78C016A
:102C9A00085F1F4F41E050E0C8010E941D3741E024
:102CAA0050E0BE016E5F7F4FC8010E941D378A81C6
:102CBA008823ACF47E0153E0E50EF11C5E0186E048
:102CCA00A80EB11C41E050E0B701C8010E941D37AF
:102CDA00F70180819FEFE91AF90A88236CF0FE0157
:102CEA003296412C512C3201C12CD12C7601C3943D
:102CFA00812C912C540104C0EA14FB0419F7EFCF7C
:102D0A00A191AF77B0E0A70196010E94D450460E78
:102D1A00571E681E791ECC0CDD1CEE1CFF1CCC0C49
:102D2A00DD1CEE1CFF1CCC0CDD1CEE1CFF1CCC0CAD
:102D3A00DD1CEE1CFF1CCC0CDD1CEE1CFF1CCC0C9D
:102D4A00DD1CEE1CFF1CCC0CDD1CEE1CFF1CAFEFC7
:102D5A008A1A9A0AAA0ABA0A99F2DF0111978C9179
:102D6A00882374F242E050E0BE016A5F7F4FC801D7
:102D7A000E941D37BE016F5E7F4F688779874E813B
:102D8A005F81542745275427C8010E941D378E8129
:102D9A009F819827892798274EEF5FEF6FEF7FEF84
:102DAA00481B590B61097109440D551D661D771D94
:102DBA00CE018B589F4F8D879E87BC01C8010E9408
:102DCA001D370E94A853FC01892B29F06D857E8549
:102DDA00888599850995C8010E94855283E0C05665
:102DEA00DE4FCDBFDEBFDF91CF911F910F91FF90D4
:102DFA00EF90DF90CF90BF90AF909F908F907F9091
:082E0A006F905F904F90089556
:102E12002F923F924F925F926F927F928F929F92E8
:102E2200AF92BF92CF92DF92EF92FF920F931F93D6
:102E3200CF93DF93CDB7DEB7A597CDBFDEBF1982A3
:102E42001A82833008F0A1C0823021F4603171050A
:102E520008F09DC00115110509F49BC0211531052B
:102E620009F499C0680119012A016CA37DA38BA3FF
:102E7200AE014F5F5F4F0E94EF2B81118FC02981FE
:102E82003A81C801840D951D2817390708F485C0B9
:102E920032017694679476946794769467947694E4
:102EA2006794769467946894FF24F5F8812C912CAA
:102EB200A12CB12C80E2F8121CC089819A81930165
:102EC200220F331F22953295307F3227207F3227FF
:102ED200821B930B809768F442018A0C9B1C969488
:102EE20087949694879497E0892299246894FF2482
:102EF200F2F8EF2C8E010D5F1F4F282D462D6CA18D
:102F02007DA18BA10E94AA2A811148C0C301880F0A
:102F1200991F880F991F880F991F880D991D880F77
:102F2200991F880F991F8415950520F4B201681B1B
:102F3200790B02C060E070E08F2D90E0861B970B4A
:102F420086010A191B098017910708F48C0183E096
:102F520090E08C0F9D1F680F791FA801C1018A0D97
:102F62009B1D0E944252A00EB11E90E2F91204C0B3
:102F72008FEF681A780A03C09FEF891A990AAC1476
:102F8200BD0408F497CF80E009C082EE07C082EE4C
:102F920005C080E003C082EE01C082EEA596CDBFDF
:102FA200DEBFDF91CF911F910F91FF90EF90DF90E5
:102FB200CF90BF90AF909F908F907F906F905F90D7
:082FC2004F903F902F900895FD
:102FCA002F923F924F925F926F927F928F929F922F
:102FDA00AF92BF92CF92DF92EF92FF920F931F931D
:102FEA00CF93DF93F12C0CED12EED8011696CD910A
:102FFA00DC9117970F2EFCE7AF2EFCEDBF2EF02DBC
:10300A000F2EF8E38F2EF3E69F2EF02D0F2EFDE004
:10301A003F2EF02D84C0D801ED91FC9109958D3099
:10302A0021F08A3009F06BC07FC0E0915334F0E0A0
:10303A00E15CFF4C108280915234811154C07FC0F0
:10304A0090915134809351349D3009F453C0F1105A
:10305A0051C060E270E08FE390E30E94DF503C01D0
:10306A00009719F0FC0111923F01EFE3F0E30190A0
:10307A000020E9F73197EF53F0432E2E0F2EFCE58F
:10308A00EF2EFCEDFF2EF02DD701CD90DC90B6018E
:10309A008FE390E30E944B52F60101900020E9F77A
:1030AA003197EC19FD0981110CC02E120AC0D70103
:1030BA001296ED91FC911397309719F0C301099577
:1030CA000CC0B4E0EB0EF11CEA14FB04E9F69F9283
:1030DA008F920E949F4B0F900F90809152348823B9
:1030EA0039F0FF24F39483E294E60E94813A02C005
:1030FA00FF24F394109253341092523410C0E0918A
:10310A005334E43648F491E09E0F90935334F0E040
:10311A00E15CFF4C808303C081E080935234FE015E
:10312A000995811178CF0EC0E0915334F0E0E15C4B
:10313A00FF4C1082909152349111D5CF81CF3092A9
:10314A00513485CF62E370E080E090E0DF91CF9167
:10315A001F910F91FF90EF90DF90CF90BF90AF90AB
:10316A009F908F907F906F905F904F903F902F909D
:02317A000895B6
:10317C008F929F92AF92BF92CF92DF92EF92FF927B
:10318C000F931F93CF93DF93CDB7DEB7C857D109F9
:10319C00CDBFDEBFCE0101967C016E019BE7C90E4F
:1031AC00D11C870185E00E944E4ED8018D939D93D2
:1031BC008D018DE790E00E94C9500C151D0591F70B
:1031CC0080910E2881FF9AC084E6E6E7F9E2DF01E0
:1031DC001D928A95E9F78EE0E8ECF8E8A6E7B9E2EB
:1031EC0001900D928A95E1F789E0E6EDF8E8AAE006
:1031FC00BDE201900D928A95E1F7CC24C394D12CB9
:10320C0008E010E00F2EFFEDAF2EF8E8BF2EF02DEA
:10321C000F2EFCE28F2EF0E29F2EF02D06C0BFEF9A
:10322C00CB1ADB0AE2E0EE0EF11CF1E0CF16D10472
:10323C0009F44DC0F801E65FF24D80829182128252
:10324C000E5F1F4FD70111968C9111978F938C9114
:10325C008F93BF92AF92C801865F924D9F938F93CD
:10326C000E943E47080F191F0F900F900F900F9060
:10327C000F900F90BDE3CB16D1048CF2F801E65FF2
:10328C00F24D80E29DE5808391838DE790E082830F
:10329C009383A8014D5F5F4F141615067CF56AE009
:1032AC007DE286E799E20E941153E6ECF3E384EFAA
:1032BC0091E0A0E0B0E080839183A283B383848308
:1032CC009583A683B783CF010E943D1317C0F701E6
:1032DC0081818F9380818F93BF92AF92C801865F5B
:1032EC00924D9F938F930E943E47080F191F0F908A
:1032FC000F900F900F900F900F9091CFC858DF4FF9
:10330C00CDBFDEBFDF91CF911F910F91FF90EF905A
:0E331C00DF90CF90BF90AF909F908F9008955C
:10332A00FF920F931F93CF93DF9300D000D0CDB7B6
:10333A00DEB7029709F0B5C0613009F044C02091A8
:10334A007034022F10E0C801019667E070E00E9415
:10335A00D64C809370349BE0909FF001919FF00DC2
:10336A001124EA53F04D9085911109C08BE0809F9A
:10337A00F001819FF00D1124EA53F04D1BC0282F54
:10338A0036E00F2EFBE0FF2EF02D07E010E0822F33
:10339A0090E0F89EF001F99EF00D1124EA53F04DE9
:1033AA000196B8010E94D64C582F9085911104C0FD
:1033BA0050937034122F45C03150282F41F7509343
:1033CA0070341FEF3EC0623009F06DC020916F3437
:1033DA00822F90E03BE0239FF0011124ED5EFF4C29
:1033EA00019683709078992324F401978C6F9F6FCC
:1033FA00019680936F3430853323D1F0282F33E040
:10340A006BE0822F90E0689FF001699FF00D112414
:10341A00ED5EFF4C019683709078992324F401970E
:10342A008C6F9F6F01965085511105C080936F3440
:10343A0017E0120F06C03150282F19F780936F3406
:10344A001FEF309789F18BE0DF011D928A95E9F72A
:10345A0081E0808780914D3490914E349C012F5F9A
:10346A003F4F29F020934D3430934E3405C00296D5
:10347A0080934D3490934E3480914D3490914E34D4
:10348A008483958340FF10C0198381E2818724E0F9
:10349A0030E0AE014F5F5F4F60E582E00E94484C2A
:1034AA0003C01FEF01C01FEF812F2496CDBFDEBFDF
:0C34BA00DF91CF911F910F91FF900895BA
:1034C600A8E0B0E0E9E6FAE10C94C24A8B01FC01FF
:1034D600608171818281938120E831E541E050E08D
:1034E6000E941C4769017A012CE330E040E050E07D
:1034F6000E94304B29833A834B835C8389819A816E
:10350600AB81BC81F80160836CE370E00E94D64C0D
:10351600DC01CB01F801A1838283C601069667E030
:1035260070E00E94C24C84832DEA3EE840E050E001
:10353600C701B6010E94304B29833A836D837E838F
:103546008F83988789819A8124E6289F6001299F25
:10355600D00C11246D817E818F81988525EB35E015
:1035660040E050E00E94304B29833A836D837E838E
:10357600E980FA80EE0CFF1CEE0CFF1CEC0CFD1C27
:103586008D819E81F5E6EF16F10410F0019604C0D8
:1035960024E6E216F10419F021E030E002C020E052
:1035A60030E0A90144595E4F4817590768F46DE6A3
:1035B60071E0821B930B0E94D64CDC01CB01E80E16
:1035C600F91ECD0120E030E044E6E40EF11CF801DE
:1035D600E682F78280879187255C3F4F82179307A3
:1035E60048F46FE170E00E94D64CDC01CB01F80193
:1035F600858322C069E970E0821B930B0E94D64C3A
:10360600DC01CB01F82EFF0CFF0CF80E6DE370E029
:10361600CD010E94D64CDC01CB01E82EEE0C6FE109
:1036260070E0CD010E94D64CDC01CB0122E0280FD0
:10363600F20EFE0CF801F582A383F80112861386BA
:0E36460083818F5F83832896E8E00C940B4B02
:10365400CF92DF92EF92FF92CF93DF93CDB7DEB795
:10366400C057D109CDBFDEBF69017A01863059F157
:10367400873009F440C0813009F09FC020E730E072
:10368400AE014F5F5F4FC701B6010E94413A8111FD
:1036940094C0E0914334F0914434309709F48DC0E0
:1036A40080E7C80ED11CE11CF11CC092FD33D092FE
:1036B400FE33E092FF33F0920034BE016F5F7F4F20
:1036C40081E009957AC024E030E0AE014F5F5F4F9E
:1036D400C701B6010E94413A81116FC0E0914334A1
:1036E400F0914434309709F468C0BE016F5F7F4F96
:1036F40086E0099562C028E030E0AE014F5F5F4F7D
:10370400C701B6010E94413A81114DC02D813E810D
:103714008F8198856B817C8149815A81211531057E
:1037240099F421E020936B348617970709F020E081
:10373400CA01992781309105A1F1C8F08230910521
:10374400E9F00397F1F02AC0820F931F21E0861756
:10375400970709F020E0CA0199278130910509F102
:1037640030F08230910551F0039759F013C08091E5
:103774006B348130B1F440936B3413C040936B3499
:1037840010C080916B34823061F0843051F04093EA
:103794006B3407C080916B34823019F084E08093DD
:1037A4006B34222351F0E0914334F0914434309748
:1037B40021F06BE674E387E00995C059DF4FCDBF74
:1037C400DEBFDF91CF91FF90EF90DF90CF9008950F
:1037D4001F93CF93DF93CDB7DEB72897CDBFDEBF5E
:1037E4000E94EF52182F882309F4A0C0AE014F5F46
:1037F4005F4F60E770E180E090E00E94944D81119A
:1038040084C089819A81AB81BC8180FF80C09C0186
:10381400AD012E7F29833A834B835C8360E770E19B
:1038240080E090E00E947E39811173C089819A8181
:10383400AB81BC81B695A79597958795B695A795C5
:10384400979587959F708093413490934234892B48
:1038540009F461C045EF53E364E870E180E090E06F
:103864000E94944D811159C06091F5337091F633E3
:103874008091F7339091F83324E030E0AE014B5F50
:103884005F4F0E94A42F182F811149C06F81788542
:103894008091413490914234861B970B059708F030
:1038A40040C0ED818FEF8E0F8730E8F58091F533BE
:1038B4009091F633A091F733B091F8339C01AD01A8
:1038C400285F3F4F4F4F5F4F68507109F0E0EE0F94
:1038D400FF1FE651FA410190F081E02D8E81099598
:1038E40081E00E94734B22E030E040E050E060E76A
:1038F40070E180E090E00E94313880E00E94734BD8
:103904000E946D54882391F010C014EF0FC014EF7F
:103914000DC014EF0BC01EEF09C014EF07C014EF65
:1039240005C01AEF03C014EF01C014EF812F2896CD
:0C393400CDBFDEBFDF91CF911F91089541
:10394000CF92DF92EF92FF920F931F93CF93DF936B
:10395000CDB7DEB76097CDBFDEBF6B017C018DE1D7
:1039600093E50E940C4E60E070EA80E090E00E94D7
:10397000864AC114D104E104F10409F485C082E04F
:1039800090E089839A8383EB92E20E940E548B83AA
:103990009C83CD82DE82EF82F8860E944C546C01BB
:1039A000DC015096ED91FC9151978081082E000C1E
:1039B000990B0E94D65181111CC0F6010089118912
:1039C00041E050E061E070E082E090E00E94DD4183
:1039D000D8018C93D6015096ED91FC91519780813E
:1039E00088233CF00E94F744009719F021E0FC0185
:1039F0002483D6015096ED91FC9151978081082E39
:103A0000000C990B0E94D6518130E1F5EBE1F8E210
:103A100001900020E9F731978F010B511842D60130
:103A20005096ED91FC91519780812BE138E242E074
:103A300050E062E070E0082E000C990B0E94A23367
:103A4000F82E811122C0D6015096ED91FC9151972C
:103A5000808140E150E0BE016F5F7F4F082E000C77
:103A6000990B0E94CF28F82E882379F0D601509622
:103A7000ED91FC9151978081082E000C990B0E94CA
:103A8000E04503C0F12C01C0F12C8F2D6096CDBF15
:103A9000DEBFDF91CF911F910F91FF90EF90DF90EC
:043AA000CF90089526
:103AA400EF92FF920F931F93CF93DF93CDB7DEB7BF
:103AB400C25CD109CDBFDEBF8C01CF53DF4F18826A
:103AC4001982C15CD04081E090E08B839C83F80133
:103AD400808191818330910501F130F48130910529
:103AE40051F0029731F15BC08430910509F445C06F
:103AF4000597A1F154C0AE01435F5F4FBE016F5AF9
:103B04007F4FC8010C960E94C129082E000C990B06
:103B14008B839C83E12CF12C44C0CE010D960E9432
:103B2400FA38082E000C990B8B839C83E12CF12C22
:103B340038C0AE014F5A5F4FB801645F7F4FF80140
:103B4400E25BFF4F808191810E949453082E000C08
:103B5400990B8B839C83E12CF12C23C0F8016485A1
:103B64007585868597850E945926082E000C990B29
:103B74008B839C83E12CF12C14C07E01F1E7EF0EC2
:103B8400F11CAE014F535F4FB701C8010C960E9460
:103B9400553E082E000C990B8B839C8302C0E12CAC
:103BA400F12CF8018081918189839A8384819581A4
:103BB400A681B7818D839E83AF83B88780859185E5
:103BC400A285B38589879A87AB87BC870E94FA51FF
:103BD400CF53DF4F48815981C15CD0406E2D7F2D7A
:103BE400CE0101960E949E49CE53DF4FCDBFDEBF6A
:0E3BF400DF91CF911F910F91FF90EF900895F8
:103C0200CF92DF92EF92FF920E9427526B017C01CA
:103C12000E9417538823D1F0209105343091063445
:103C22004091073450910834C701B6010E947C5478
:103C32001616170618061906D4F4C0920534D09247
:103C42000634E0920734F092083411C0E6ECF3E354
:103C5200108211821282138281E090E0A0E0B0E033
:103C620084839583A683B783CF010E943D138091FD
:103C72000E2883FD42C081FF11C0E8EDF3E381E02D
:103C820090E0A0E0B0E080839183A283B3831482AA
:103C9200158216821782CF010E943D1380910E2851
:103CA20084FD2BC00E941753882391F0EFECF3E3BD
:103CB20081E090E0A0E0B0E080839183A283B383AF
:103CC2001482158216821782CF010E943D1315C0FD
:103CD20080910E2888238CF4EFECF3E38AEF90E0D6
:103CE200A0E0B0E080839183A283B3838483958331
:103CF200A683B783CF010E943D1380910E2882FFD5
:103D020012C0EDEBF3E381E090E0A0E0B0E080834D
:103D12009183A283B3831482158216821782CF0104
:103D22000E943D1311C0EDEBF3E310821182128267
:103D3200138281E090E0A0E0B0E084839583A683C3
:103D4200B783CF010E943D1364E670E080E090E00B
:0A3D5200FF90EF90DF90CF900895EE
:103D5C002564002A2E706F6F6C2E6E74702E6F722D
:103D6C0067005468696E67204E616D652069732029
:103D7C006E6F742070726573656E742C2065727230
:103D8C006F7220747970652025642C2075736572B0
:103D9C0020646566696E6564207468696E67204985
:103DAC004420697320757365641B5B306D00546827
:103DBC00696E67204E616D65207265616420667264
:103DCC006F6D20746865206465766963652069731E
:103DDC002025731B5B306D0041575320456E64707A
:103DEC006F696E74206973206E6F742070726573C6
:103DFC00656E7420696E2057494E432C206569749A
:103E0C006865722072652D70726F766973696F6E5A
:103E1C00206F72206D6963726F63686970204157FF
:103E2C00532073616E64626F7820656E64706F6985
:103E3C006E742077696C6C20626520757365641BE9
:103E4C005B306D0041575320456E64706F696E7422
:103E5C0020726561642066726F6D2057494E432055
:103E6C0069732025731B5B306D004D4348502E4900
:103E7C004F542E414343455353504F494E54000029
:103E8C000000000000000000000000313233343527
:103E9C003637383930000000000000000000000008
:063EAC0000000000000010
:103EB2004F925F926F927F928F929F92AF92BF9238
:103EC200EF92FF920F931F93CF93DF9300D000D016
:103ED200CDB7DEB77C0148015901742E6624552402
:103EE2004424872F9927AA27BB27482A592A6A2AB6
:103EF2007B2A8BE0482ADB01CA018827AA27BB2735
:103F0200BA2FA92F982F8827482A592A6A2A7B2A4A
:103F1200442755277727452F562F672F7727442A7F
:103F2200552A662A772AA901980168E072E081E0A1
:103F320090E00E947E39A30192016CE072E081E080
:103F420090E00E947E3925EA30E040E050E060E1F6
:103F520072E081E090E00E947E392FE130E040E0A3
:103F620050E064E172E081E090E00E947E3920E05E
:103F720030E04DE050E06CE172E081E090E00E94C0
:103F82007E3925E830E040E050E064E072E081E014
:103F920090E00E947E39AE014F5F5F4F68E172E0B0
:103FA20081E090E00E94944D811108C089819A813C
:103FB200AB81BC810197A105B10569F70E946D54DF
:103FC200882319F00DC084EF0CC09401A70160E0B2
:103FD20070E08DE090E00E94A42F882311F0F3CFCF
:103FE20084EF2496CDBFDEBFDF91CF911F910F9159
:103FF200FF90EF90BF90AF909F908F907F906F90C7
:064002005F904F9008954D
:10400800A0E0B0E0EAE0F0E20C94BE4AEC01EE81F8
:10401800FF818F0104561109B9F0CF018556910926
:104028006C0197FF03C023E0C20ED11CD594C7943E
:10403800D594C7946CE97FEF0E94D64CC60ED71E64
:104048008FEFC81AD80A02C0C12CD12C2DE631E056
:10405800D8010E94FD520D2C000CEE08FF08C60E78
:10406800D71EE81EF91E8B81082E000C990B8C01B7
:10407800015011092D8122302CF4222379F1015E9F
:104088001F4F2CC0CF018459984F0E94EA4C282F0B
:1040980030E0255C3F4F200F311F8D81082E000C2A
:1040A800990B02978530910514F027563F4F65E02C
:1040B80070E00E94D64CAC0197FF02C04F5F5F4F83
:1040C800559547959DE3949F8001959F100D112468
:1040D800020F131F80FF02C0015E1F4FC801110F9E
:1040E800AA0BBB0B9C01AD012C0D3D1D4E1D5F1D88
:1040F80060E871E581E090E00E94DE4E4B015C01D2
:10410800AA810A2E000CBB0B20E13EE00E94FD5262
:104118006B017C01A9810A2E000CBB0B2CE330E05B
:104128000E94FD52C60ED71EE81EF91E6881862F12
:10413800660F990BAA0BBB0B8C0D9D1DAE1DBF1DE9
:10414800BC01CD01680D791D8A1D9B1DCDB7DEB759
:06415800ECE00C94074BA3
:10415E000F931F93CF93DF930E94FC3E40E054E0F9
:10416E008EEDFA01808320E234E0F901108280E4C2
:10417E0094E0FC011082C0E6D4E06FE06883A0E812
:10418E00B4E01C9200EA14E079E1F801708370E863
:10419E00FA017483F9011482FC0114826C83149663
:1041AE001C921497F8011482FA01108A118A128A4D
:1041BE00138A148A158A168A178AF901108A118AA7
:1041CE00128A138A148A158A168A178AFC01108A93
:1041DE00118A128A138A148A158A168A178A188ADD
:1041EE00198A1A8A1B8A1C8A84E08D8B1E8A1F8A62
:1041FE0050961C92509751961C92519752961C9223
:10420E00529753961C92539754961C9254975596C8
:10421E001C92559756961C92569757961C92F801DB
:10422E00108A88E0818B9BE0928B138A148A858B8F
:10423E00868B178AE0EEF5E01182108214821582C9
:10424E001382128284E994E580933334909334344C
:10425E0085E994E5809331349093323486E994E580
:10426E0080932F349093303487E994E580932D34E6
:10427E0090932E3488E994E580932B3490932C34CC
:10428E0089E994E58093293490932A348AE994E558
:10429E008093273490932834DF91CF911F910F9103
:0242AE00089571
:1042B000CF92DF92EF92FF920F931F93CF93DF93F2
:1042C000CDB7DEB7C75CD109CDBFDEBF4115510503
:1042D00009F454C0E0911B34F0911C34C080D180AB
:1042E000982F9370923009F062C02115310531F496
:1042F00047C00115110509F05EC044C08C836D8371
:104300007E8380E4FA01DE01179601900D928A9572
:10431000E1F780E4F901DE01A95BBF4F01900D9246
:104320008A95E1F709C083E1F801DE01A95BBF4F7F
:1043300001900D928A95E1F7BE016F5F7F4FC60134
:104340000E94D846811143C060911B3470911C3487
:10435000CE0101960E945528811139C0E114F10463
:1043600099F08F81833290F080E2FE013896D70178
:1043700001900D928A95E1F780E029C082EE27C076
:1043800082EE25C082EE23C080E021C080E01FC005
:104390008C836D837E8380E4FA01DE0117960190A1
:1043A0000D928A95E1F70115110531F2BCCF9330DA
:1043B00009F49FCFEDCF8C836D837E8380E4FA0177
:1043C000DE01179601900D928A95E1F7ACCFC953A3
:1043D000DF4FCDBFDEBFDF91CF911F910F91FF90D7
:0843E000EF90DF90CF900895EB
:1043E800CF92DF92EF92FF92CF93DF9300D000D06D
:1043F800CDB7DEB7C090F933D090FA33E090FB33F5
:10440800F090FC33C114D104E104F10409F078C040
:10441800AE014F5F5F4F64EF73E180E090E00E9470
:10442800944D81116DC049EF53E360E070E180E085
:1044380090E00E94944D811163C08091F93390916E
:10444800FA33A091FB33B091FC33803A22E0920713
:1044580020E1A207B105A9F489819A81AB81BC81C9
:104468000197A105B105C1F181EA92E0A0E1B0E0B0
:104478008093F9339093FA33A093FB33B093FC33D2
:104488002BC0803B9240A041B10531F589819A81CA
:10449800AB81BC8183309105A105B105E9F0049792
:1044A800A105B10569F481EB92E0A0E1B0E0809349
:1044B800F9339093FA33A093FB33B093FC330CC0D9
:1044C80082EB92E0A0E1B0E08093F9339093FA3365
:1044D800A093FB33B093FC33C090F933D090FA33F8
:1044E800E090FB33F090FC3380EFE82225E0E22AED
:1044F800C092F933D092FA33E092FB33F092FC3356
:10450800C701B6012496CDBFDEBFDF91CF91FF90E2
:08451800EF90DF90CF900895B1
:104520008F929F92AF92BF92FF920F931F93CF9360
:10453000DF93CDB7DEB7CC56D109CDBFDEBFF82EA5
:1045400049015A01809173318E3309F442C0F81643
:1045500031F003E711E337C08F1135C002C003E724
:1045600011E3D80111962D913C9112972115310537
:1045700009F45BC0AE014F5F5F4FC501B4010E94FB
:10458000413A811159C0E0914534F0914634309759
:1045900001F1D80111968D919C911297892B71F0A0
:1045A000B1E1FB1205C010926C34898180936E34A6
:1045B000BE016F5F7F4F8F2D09950BC060E070E0EB
:1045C0008F2D099506C00D5F1F4FF80180818E3336
:1045D00019F6F0E2FF1230C028E030E0AE014B598E
:1045E0005F4FC501B4010E94413A811125C0AB96CD
:1045F0002EAD3FADAB97A7964EAD5FADA797C5016A
:10460000B401685F7F4F8F4F9F4F0E94413A8111E5
:1046100013C0E0914534F0914634309769F0BE0103
:104620006B597F4F80E2099507C0E0914534F091C6
:104630004634309771F2C2CFC459DF4FCDBFDEBFD1
:10464000DF91CF911F910F91FF90BF90AF909F90FE
:044650008F900895AA
:104654007F928F929F92AF92BF92CF92DF92EF920E
:10466400FF920F931F93CF93DF93CDB7DEB72897B5
:10467400CDBFDEBF6A018901FE01319697E0DF01FB
:104684001D929A95E9F797EC99839091673491116B
:1046940049C091E0909367342130310511F402E070
:1046A40010E08A837B836C831E830F8367E0CE01D3
:1046B40001960E94334CB82E811137C081EF888750
:1046C40001151105D9F1712C6894882485F80F2EF1
:1046D400F3EF9F2EF02D0F2EF2EFAF2EF02D780179
:1046E4000130B0E21B0710F0E72CF82C0E191F095B
:1046F40009F4988661E070E0CE0108960E940B32BE
:104704008823C9F0B701C6010E940B32882399F0AF
:10471400A886CE0CDF1C0115110509F70FC01092F5
:10472400673412C0BB24B3940FC0BB24B3940CC031
:10473400BB24B39409C0BB24B39406C083EC0E9489
:104744004440882361F3F4CF8B2D2896CDBFDEBF80
:10475400DF91CF911F910F91FF90EF90DF90CF9059
:0C476400BF90AF909F908F907F900895C1
:10477000CF93DF93EC01E8EEF1E38DE1DF011D92D1
:104780008A95E9F790819F709061908384E0868399
:104790009DE4978391E5908794E59187928783873D
:1047A0008F89988D892B21F48B899C89892B21F005
:1047B00082EC8093F43103C082E08093F43148EEC0
:1047C00051E38D859E85982789279827FA0185874B
:1047D0009687A989BA89A18BB28BFD01019000202F
:1047E000E9F79F01215031092A1B3B0BDA011F9683
:1047F0002D933C9350974091F43146FF09C0898D29
:104800009A8DFD01818F928F8F89988D878B908FE4
:10481000442394F48D899E89E8EEF1E3858B968B91
:104820006B897C89638B748B8789908D860F971F2A
:104830000496820F931F01C0C9010C968093033226
:1048400090930432407C81F0E8EEF1E38789908D0B
:10485000982789279827878B908F83899489982711
:1048600089279827838B948B3227232732272093FD
:10487000F7313093F83181E080935E34809359347E
:06488000DF91CF910895C5
:10488600246177732F7468696E67732F25732F738E
:104896006861646F772F757064617465007B22733D
:1048A60074617465223A7B227265706F72746564F6
:1048B600223A7B22746F67676C65223A25647D7D98
:1048C6007D00627574746F6E5072657373657300E4
:1048D6007B2242223A205B20002564002461777304
:1048E6002F7468696E67732F25732F736861646F01
:1048F600772F7570646174652F64656C746100222E
:10490600746F67676C65223A00746F7069633A204A
:1049160025731B5B306D007061796C6F61643A20A2
:1049260025731B5B306D0061316771743873747465
:104936006969676E332E696F742E75732D656173A1
:10494600742D322E616D617A6F6E6177732E636F8F
:104956006D005573696E6720746865204157532052
:1049660053616E64626F7820656E64706F696E74F1
:10497600203A2025731B5B306D004D4348502E496D
:0D4986004F54006D6963726F6368697000C3
:014993000122
:10499400CF92DF92EF920F93CF93DF93CDB7DEB731
:1049A4002B97CDBFDEBFDC01690119821A828B838C
:1049B4009C836D830E83E11002C082E001C080E01D
:1049C400613248F00CC0FD01E60FF11D9081911198
:1049D40003C0362F01C0362F6150A8F73D83423003
:1049E40081F018F4413039F048C0433059F1443073
:1049F40009F43FC042C0BE016F5F7F4F0E94B546BD
:104A040043C0C114D104D9F11F82188619861A86AD
:104A14001B86F60101900020E9F73197EC19FD0996
:104A2400E034F10519F4CF82D88603C0C986DA864A
:104A3400EB87AE01495F5F4FBE016F5F7F4F0E94FE
:104A4400D72722C0C114D104E1F096012E5F3F4F55
:104A54002F833887F60191819150998790819A87A5
:104A6400AE01495F5F4FBE016F5F7F4F0E94192DFA
:104A74000BC0CD2841F084EF07C081EF05C081EF62
:104A840003C081EF01C081EF2B96CDBFDEBFDF9164
:0C4A9400CF910F91EF90DF90CF9008952C
:104AA000CF92DF92EF92FF920F931F93CF93DF93FA
:104AB000CDB7DEB72897CDBFDEBF88230CF45FC02B
:104AC0006115710509F45DC04115510509F45BC01C
:104AD000A82F082E000CBB0B9BE08902F0011124CB
:104AE000EA53F04D9085992309F44FC09BE09A9FBB
:104AF000F0019B9FF00D1124EA53F04D6083718308
:104B0000428353839285911142C09BE09A9FF001AA
:104B10009B9FF00D1124EA53F04D91E0928791850F
:104B200090FF02C06DE401C066E401151105210586
:104B3000310549F4CC24CA94DC2C7601C982DA828E
:104B4000EB82FC8204C009831A832B833C838D8310
:104B50008BE08A9FF0018B9FF00D1124EA53F04DFA
:104B6000848195818F83988728E030E0AE014F5F84
:104B70005F4F82E00E94484C882361F00AC08AEFB0
:104B800009C08AEF07C08AEF05C08AEF03C080E042
:104B900001C082EF2896CDBFDEBFDF91CF911F917C
:0C4BA0000F91FF90EF90DF90CF900895F0
:104BAC00EF92FF920F931F93CF93DF93182F092F40
:104BBC00F62EE72E8FE498E29F938F9382EE98E87F
:104BCC009F938F93C1E1D9E2DF93CF930E943E472D
:104BDC0009900020E9F72197AE0141515942612F0C
:104BEC00702F81E199E20E94C94F0F900F900F90A6
:104BFC000F900F900F90892BA1F565E079E88F2D20
:104C0C009E2D0E94084A009761F1FC018185813339
:104C1C00A9F481E080937234E6ECF3E381E090E058
:104C2C00A0E0B0E080839183A283B38314821582C9
:104C3C0016821782CF010E943D1313C0109272345A
:104C4C00E6ECF3E3108211821282138281E090E091
:104C5C00A0E0B0E084839583A683B783CF010E9444
:104C6C003D130F931F938FE099E89F938F931F929F
:104C7C001F920E94B53CEF92FF928DE199E89F93B1
:104C8C008F931F921F920E94B53C0E942E3D8DB7B0
:104C9C009EB70C968DBF9EBFDF91CF911F910F9148
:064CAC00FF90EF90089557
:104CB2008F929F92AF92BF92CF92DF92EF92FF922A
:104CC2001F93CF93DF93CDB7DEB7C75ED109CDBFB8
:104CD200DEBFFE01EB56FF4F20E5DF011D922A9554
:104CE200E9F7CB51DF4F18821982C55ED0406115BA
:104CF20071058105910509F445C04B015C01C12C88
:104D0200D12C76019E012F5F3F4FAE014B5B5F4F6F
:104D1200BE016B567F4FCE018B519F4F0E947C0B81
:104D2200182F811134C0CB51DF4F88819981C55E24
:104D3200D0404797E1F4C951DF4F1882C75ED04097
:104D42009E0129513F4FAE014F5F5F4FBE016B5B2A
:104D52007F4FCE018B569F4F0E94EF2E811114C0C0
:104D6200C951DF4F8881C75ED040882369F0BFEF09
:104D7200CB1ADB0AEB0AFB0A8C149D04AE04BF04B7
:104D820009F605C014EF03C00E949C5414EF812F52
:104D9200C951DF4FCDBFDEBFDF91CF911F91FF9091
:104DA200EF90DF90CF90BF90AF909F908F9008953B
:104DB200CF92DF92EF92FF920F931F93CF93DF93E5
:104DC200CDB7DEB76097CDBFDEBF88230CF45BC0E2
:104DD2006115710509F459C0493795E0590708F082
:104DE20056C0282F082E000C330B9BE08902F001DD
:104DF2001124EA53F04D9085992309F44AC089831E
:104E02004B835C839BE0929FF001939FF00D1124F2
:104E1200EA53F04D0480F581E02DED87FE8787305F
:104E220034F00F2EF4E4CF2ED12CF02D05C00F2E2E
:104E3200F0E5CF2ED12CF02D8BE0829FF001839FE5
:104E4200F00D1124EA53F04D818580FF0CC08BE0F8
:104E5200829FF001839FF00D1124EA53F04DC6802A
:104E6200D7808CE401C085E47A018B01682F6068E9
:104E720020E130E0AE014F5F5F4F82E00E943914C3
:104E8200882351F008C08AEF07C08AEF05C08AEF75
:104E920003C08AEF01C082EF6096CDBFDEBFDF9113
:104EA200CF911F910F91FF90EF90DF90CF900895D7
:104EB200CF93DF93FC0180E1A4E9B2E3ED01199203
:104EC2008A95E9F780915934833009F06BC09C913F
:104ED2009F7090639C93808183FB882780F980FB7D
:104EE20093F99C9380818670997F982B9C939E70F6
:104EF200983019F48C91877F8C939081A4E9B2E366
:104F02008C9190FB80F98C938781908517968D9375
:104F12009C93189727813085E90109900020E9F7D1
:104F2200CE010197821B930B15968D939C93169736
:104F320020812695237071F0218519962C9319975B
:104F420022851A962C931A9722E030E01E962D9312
:104F52003C931F9724853585A4E9B2E31C962D93D3
:104F62003C931D9743851B964C931B971E962D9140
:104F72003C911F972E5F3F4F240F311D280F391F81
:104F82001E962D933C931F9798278927982715964D
:104F92008D939C93169780915E34846080935E34E7
:0C4FA20081E001C080E0DF91CF91089514
:104FAE00CF92DF92EF92FF920F931F93CF93DF93E7
:104FBE00CDB7DEB7CC59D109CDBFDEBF41155105F6
:104FCE0009F452C07A019B018E0103591F4F4CE622
:104FDE0050E062E00E944929811153C0FE013196D2
:104FEE008CE6DF011D928A95E9F7F70160817181E8
:104FFE006115710571F082819381892B79F580E4B9
:10500E00898340E2CE0102960E947F3B811138C017
:10501E002DC0628173816115710511F14481413496
:10502E0008F5498350E0CE0102960E9442520F2E9F
:10503E00F0E3CF2ED12CF02D0F2EFCE6EF2EF12C1F
:10504E00F02D8E010F5F1F4F20E330E0AE0143596C
:10505E005F4F6BEB81E00E94391413C081EF11C0DA
:10506E0081EF0FC081EF0DC081EF0BC0498150E081
:10507E00F70160817181CE0102960E944252D7CF14
:10508E0081EFC456DF4FCDBFDEBFDF91CF911F91B1
:0C509E000F91FF90EF90DF90CF900895ED
:1050AA00AF92BF92CF92DF92EF92FF921F93CF936C
:1050BA00DF9300D0CDB7DEB76C017B01DB016D91C8
:1050CA007C91FC0182810E94FE2F811157C0D70179
:1050DA00ED91FC911197A280B38012968D919C91CB
:1050EA0013970E94F44B182F811142C0F601418197
:1050FA0050E0B601D70112968D919C9113970E94A8
:10510A00D352182F811134C0B50180E090E00E947B
:10511A00B74DB6E0CB0ED11C80ECF60111928A9500
:10512A00E9F780EC90E089839A83AE014F5F5F4F85
:10513A00B601D70112968D919C9113970E94DA526B
:10514A00182F811115C089819A818430910520F424
:10515A00892B69F417EE0CC0C6010E941541182F5D
:10516A00811106C0C6010E947B41182F01C016EEAC
:10517A00F701828193810E94C84D812F0F900F9071
:10518A00DF91CF911F91FF90EF90DF90CF90BF906A
:04519A00AF90089535
:10519E00AF92BF92CF92DF92EF92FF920F931F9337
:1051AE00CF93DF93CDB7DEB76097CDBFDEBF8C0157
:1051BE006B015A010E94F7447C01892B09F44FC000
:1051CE00F6018191919189839A832EE0DE011396E7
:1051DE0001900D922A95E1F70297D9F582E090E0C1
:1051EE0089839A834A2DBE016F5F7F4F802F0E9465
:1051FE00932E882341F1873F01F18A3F99F51123C0
:10520E0034F486E280935F348FEF9FEF2DC0CD286C
:10521E0031F481E380935F348FEF9FEF25C0AB288D
:10522E0031F486E180935F348FEF9FEF1DC086E2ED
:10523E0080935F348FEF9FEF17C085E080935F34CC
:10524E008FEF9FEF11C082E0F701848380E090E042
:10525E000BC08FE280935F348FEF9FEF05C08FEF0F
:10526E009FEF02C08FEF9FEF6096CDBFDEBFDF9145
:10527E00CF911F910F91FF90EF90DF90CF90BF9045
:04528E00AF90089540
:105292000F931F93CF93DF93F901D801445D5F4FC2
:1052A200309709F459C022813381232B09F456C067
:1052B2009481913208F054C0109709F453C090E3DE
:1052C200E80119929A95E9F74D935C931197813011
:1052D20059F088F0823009F047C012968C911297EB
:1052E200826012968C93129712968C91129781601B
:1052F20012968C93129785818F3F21F413968C938B
:10530200139706C081508E3088F513968C931397AD
:105312008FEF860F843060F5ED018F016CA78481D9
:105322008C83448150E062817381CD0105960E9495
:105332004252F80180819181892BE1F081E08DA3B5
:10534200DE0196960190F081E02D86E001900D92AB
:105352008A95E1F780E00FC081EF0DC081EF0BC0AD
:1053620081EF09C084EF07C081EF05C081EF03C060
:1053720081EF01C080E0DF91CF911F910F910895DD
:105382009F92AF92BF92CF92DF92EF92FF920F93D2
:105392001F93CF93DF936C015B01EA018091E133AC
:1053A2009091E233A091E333B091E433892B8A2BBD
:1053B2008B2B41F01092E1331092E2331092E333DF
:1053C2001092E433E0911B34F0911C340280F3819B
:1053D200E02D0180F281E02D81818330C9F080913E
:1053E200E1339091E233A091E333B091E43301963B
:1053F200A11DB11D8093E1339093E233A093E33377
:10540200B093E4336894EE24E1F8F12C912C07C0B8
:10541200EE24EA94FE2C0F2EFDE09F2EF02DBE010D
:10542200C7010E946D52811111C0C05CDF4F80E242
:1054320090E08883998300E010E09501A601B7010E
:10544200892D0E946031811103C003C084EF01C025
:1054520084EFDF91CF911F910F91FF90EF90DF903A
:0A546200CF90BF90AF909F90089587
:10546C00EF92FF920F931F93CF93DF93D82FC62FFA
:10547C007A010E94F7448C01009709F45EC0C63093
:10548C0009F118F4C53031F058C0C730B1F0C9304B
:10549C00A9F153C0E114F10409F44FC0D7011196DE
:1054AC008C91882324F083E0F801848346C08D2FEF
:1054BC00DD0F990B0E94E04540C083E0D8011496A3
:1054CC008C933BC0E114F104C1F1F701628173814B
:1054DC00161617066CF4DC011296ED91FC911397DD
:1054EC00D7018D919C91099583E0F801848325C0A7
:1054FC008D2FDD0F990B0E94E0451FC0E114F104C4
:10550C00E1F0D7018D919C911197009789F012963B
:10551C006D917C9113976115710551F0D80112961C
:10552C00ED91FC911397099583E0F801848305C0F4
:10553C008D2FDD0F990B0E94E045DF91CF911F91CC
:08554C000F91FF90EF9008950C
:10555400AF92BF92CF92DF92EF92FF920F931F937D
:10556400CF93DF93CDB7DEB7C95CD109CDBFDEBF22
:10557400F82E6801012BB1F1E0911B34F0911C3439
:10558400A080B18084E0E816D9F180E2E8122CC052
:105594002EC08F2D8068F82EFC82C853DF4F88817F
:1055A4009981C85CD0408D839E83BE016F5F7F4F1D
:1055B400C5010E94465181112BC060911B3470912A
:1055C4001C34CE0101960E945528182F81110EC05B
:1055D4004E2D50E0BE01685F7F4FC6010E944252CB
:1055E400812F16C082EE14C082EE12C011C08E014B
:1055F40008531F4F8F2D0E943F42811109C0C9CF0C
:105604008E0108531F4F8F2D0E943F42882321F2A1
:10561400C753DF4FCDBFDEBFDF91CF911F910F91F5
:0E562400FF90EF90DF90CF90BF90AF90089571
:105632000F931F930E943553E0911F34F091203451
:10564200309719F40E94094C5CC04091ED3350919F
:10565200EE336091EF337091F03386819781A085AC
:10566200B185841B950BA60BB70B009701E0A00731
:10567200B10500F14091ED335091EE336091EF337B
:105682007091F033ADE1B3E3415051096F4F7F4F59
:1056920016964D935D936D937C9319971496ED93A3
:1056A200FC931597A0931F34B09320348FEF9FEF94
:1056B200A0E0B0E04FEF5FEF60E070E08A019B0195
:1056C200081B190B2A0B3B0B0093E9331093EA33A7
:1056D2002093EB333093EC3380E090E00E949D50B6
:1056E2000E943B538091E9339091EA33A091EB33CE
:1056F200B091EC330E949D500E942F5381E0809321
:0857020057341F910F91089527
:10570A00EF92FF920F931F93CF93DF93CDB7DEB73C
:10571A00C75CD109CDBFDEBFA0911B34B0911C3448
:10572A00ED90FC90982F93708C836D837E839230DA
:10573A0048F484E1FA01DE01179601900D928A95E8
:10574A00E1F715C09330B1F585FF09C080E4FA018D
:10575A00DE01179601900D928A95E1F708C080E262
:10576A00FA01DE01179601900D928A95E1F78901F7
:10577A00BE016F5F7F4FC7010E94684981111FC038
:10578A0060911B3470911C34CE0101960E945528F9
:10579A00811115C00115110579F08F81833270F0DE
:1057AA0080E2FE013896D80101900D928A95E1F7C0
:1057BA0080E005C082EE03C080E001C080E0C953EA
:1057CA00DF4FCDBFDEBFDF91CF911F910F91FF90C9
:0457DA00EF900895AF
:1057DE004115510509F45AC0E0911B34F0911C3467
:1057EE000280F381E02D0180F281E02D91819111F3
:1057FE001BC0813059F018F0823079F049C088E52D
:10580E0090E0FA018083918380E0089580E490E037
:10581E00FA018083918380E0089580E290E0FA019E
:10582E008083918380E00895813059F018F08230A2
:10583E0079F030C080E890E0FA018083918380E0B7
:10584E00089580E490E0FA018083918380E00895CA
:10585E006830710538F484E290E0FA018083918318
:10586E0080E008956830710539F480EA91E0FA011C
:10587E008083918380E008956031710568F488E437
:10588E0090E0FA018083918380E0089582EE08957E
:0C589E0082EE089582EE089582EE0895D7
:1058AA00CF93DF9310920A2810920B2810920C289B
:1058BA0010920D2880910E288D7F886080930E2883
:1058CA0080910928877F8B7F809309280E947940DD
:1058DA0065E77FE486E39AE20E941E520E94CF4463
:1058EA00CFE0D8E28AE0FE0111928A95E9F7CE016B
:1058FA000E94AD530E944C54FC018089918988838F
:10590A00998386E494E58A839B8380917C28882303
:10591A0039F081E09091F228911103C080E001C032
:10592A0080E00E94D7438823A1F087ED92E30E948A
:10593A009A4C40E157E260E070E081EE92E30E9407
:10594A004A2F809109288D7F886081608093092879
:10595A0005C0809109288E7F8093092860E070E055
:08596A00CB01DF91CF910895FC
:10597200FC01892B09F444C08081882309F442C0C8
:10598200DF010D900020E9F71197AE1BBF0B919735
:10599200D8F581A181508E30C8F5DF01AF5BBF4FD2
:1059A2008C91811108C011968C91811104C01196BD
:1059B2008C91882369F187AD813061F18330B9F42C
:1059C20082A18150843040F583A18F7E8A3031F5E7
:1059D20084A1882329F1B496DF010D900020E9F714
:1059E2001197AE1BBF0B5B97E8F084EF08958230EE
:1059F200D9F483A190E00897C997C0F084EF089585
:105A020084EF089584EF089584EF089584EF089554
:105A120084EF089580E0089584EF089584EF089557
:105A220084EF089580E0089584EF089580E008955A
:105A3200CF92DF92EF92FF920F931F93CF93DF9358
:105A4200CDB7DEB7C054D109CDBFDEBFFA01309762
:105A5200D1F120813181232BC1F193819150943076
:105A6200B0F592819F7E9A30A1F57A019B018E0159
